:020000040800F2
:1000000000000220354300088143000881430008B6
:10001000814300088143000881430008000000007C
:100020000000000000000000000000008143000804
:10003000814300080000000081430008814300085C
:100040008143000881430008814300088143000880
:100050008143000881430008814300088143000870
:100060008143000881430008814300088143000860
:100070008143000881430008814300088143000850
:100080008143000881430008814300080D2B0008CC
:10009000112B000881430008012B00088143000850
:1000A0008143000881430008814300088143000820
:1000B0008143000881430008814300088143000810
:1000C0008143000881430008814300088143000800
:1000D00081430008814300088143000881430008F0
:1000E00081430008814300088143000881430008E0
:1000F00081430008814300088143000881430008D0
:1001000081430008814300088143000881430008BF
:1001100081430008814300088143000881430008AF
:10012000814300088143000881430008814300089F
:10013000814300080000000000000000212B00089F
:10014000252B000881430008152B00088143000877
:10015000814300088143000881430008814300086F
:10016000814300088143000881430008814300085F
:10017000814300088143000881430008000000001B
:1001800000000000814300080000000000000000A3
:1001900081430008000000000000000081430008C7
:1001A0000000000000000000000000008143000883
:1001B000814300088143000881430008814300080F
:1001C0008143000810B5054C237833B9044B13B1B3
:1001D0000448AFF300800123237010BD601100209C
:1001E00000000000DCF2040808B5034B1BB1034912
:1001F0000348AFF3008008BD000000006411002038
:10020000DCF20408A3F5803A704700BF174B002BBF
:1002100008BF134B9D46FFF7F5FF00218B460F46A5
:100220001348144A121A32F0B3FC0E4B002B00D0C4
:1002300098470D4B002B00D0984700200021040068
:100240000D000D48002802D00C4803F088F832F069
:10025000FBF82000290003F045FB03F07DF800BF08
:100260000000080000000000D5380008000002204F
:10027000601100200C4900205F33000800000000DE
:1002800010B5094B036003F1200280330446C0F827
:10029000BC20C0F8C030BC3007F0ECFA204606F0B5
:1002A000C7FD204610BD00BF889E0408A0F1BC0019
:1002B000E6E7A0F1C000E3E708B5164D1649174878
:1002C000174C07F0FBFA1749144807F0F7FA2A46CB
:1002D0001549124807F00FFB1449104807F0EEFAD1
:1002E00011490E48224607F006FB0C4807F0D4FAE5
:1002F00023782A780E49094807F0E0FA287800F0B8
:10030000E1F8207800F000FD00F02EF900F026FD65
:10031000FAE700BFCC0100200C8504083C12002045
:100320007C11002052850408698504086C85040846
:100330008985040810B50446FFF7A2FF204603F0A4
:10034000A9F9204610BDA0F1BC00F3E7A0F1C00060
:10035000F0E7000013B5094C4FF416530093032245
:1003600000230221204606F0F9F8054A05492046F7
:1003700002B0BDE8104002F0EDBF00BF80110020C8
:10038000C8010020810200080FB407B5064B04AA7B
:100390001B6852F8041BD868019238F0E3FF03B0E1
:1003A0005DF804EB04B070470807002008B5074B60
:1003B0001A78074B1B789A4205D106481146FFF779
:1003C000E3FF012008BD0020FCE700BFCD010020B5
:1003D000F6130020A2850408024B1870062000F0D6
:1003E0007FBA00BF5A12002038B50546FFF7DEFF7E
:1003F0000128044605D105482946FFF7C5FF2046D8
:1004000038BD034B00241D70F9E700BFE1850408E7
:10041000F613002070B50D4E0D4D3378834228BF82
:1004200003461A460B4829461C4632F09BFA32789E
:10043000094B121BD2B21C7032702AB129192846FE
:1004400032F090FA012070BD1046FCE75C120020EB
:10045000F71700205D120020F213002038B5054682
:1004600010460C46FFF7C0FF012808D1072000F016
:1004700053FA20B1BDE83840072000F04DBA192CDE
:100480002246294609D80B4832F06CFA0A4B1C70F8
:10049000BDE83840042000F023BA084832F062FA80
:1004A000074B1A201C70FFF7B5FF072000F018FA61
:1004B000EEE700BF5D120020F2130020F7170020C6
:1004C0005C12002010B50A4B0A4C00221A702070F2
:1004D00000F01CFAFFF76AFF207800F089FA06485E
:1004E00000F0ECFDBDE81040044800F0EDBD00BF99
:1004F000F6130020CD0100205D040008D903000898
:100500002DE9FF41164D1F4695F80080154B144606
:1005100098440E4600F0E2F922460146404632F089
:1005200021FA2A78023A1444E4B2012F2C7003D045
:100530009DF82830012B10D100F09AFA039000F0BA
:1005400091FA039B009022460648314600F090FD48
:100550000020287004B0BDE8F0810120FAE700BF58
:100560005B120020F71300202DE9F043B44BB54C8B
:100570001A782578AA4218BF1D70012D85B000F0A9
:10058000AF80022D00F0CF80002D40F05581062075
:1005900000F0C2F978B1AC4B187800F045FAB0FA27
:1005A00080F0400900F07DFD2570062005B0BDE813
:1005B000F04300F09FB9032000F0AEF900283CD0D2
:1005C00000F040FA804600F043FA064600F044FA94
:1005D000029000F053FA8146304600F05CF9029A2E
:1005E000B9F1000F1FD1304600F076F9974D014662
:1005F0002A789748FFF7C8FE304600F06DF92B784F
:10060000984201D1431C2B70304600F065F9014639
:10061000904800F04AF942468E48032100F0FAF96A
:100620000123237007E0C7B200974B46414630468E
:10063000FFF766FF25700320B8E7042000F06CF98F
:1006400038B3824D844B2A781B780392072002939B
:1006500000F062F9B0FA80F04009DDE902327F492A
:1006600000907F487F4E00F027F97F4B327818705A
:1006700001467B4800F0CEF93378FF2B1EBF2B7864
:1006800001332B70794B00221A7001232370042050
:100690008CE7072000F040F950B1042000F020F969
:1006A0001A20FFF7B7FE002840F0C68007207DE73C
:1006B00000F032F908B1002078E7012000F02CF9B1
:1006C00008B1012072E700F027F908B102206DE7B8
:1006D000052000F021F9002800F0AE80052065E734
:1006E000284600F019F9064650B100F0E7F9012854
:1006F00003D0052000F010F900B102202070E0E7DF
:1007000000F00AF9002800F09780564B1B78FF2B69
:1007100004D12846267000F0C1FCCCE702232370E8
:1007200000F00CFAC7E7284600F0F6F80546D0B10D
:1007300000F08EF905464A4800F0CEF806462846F5
:1007400000F0CAF8864207D100F0ACF9002301207E
:10075000237000F0A3FCB9E7414800F0BDF828463B
:1007600000F0BAF8B2E7052000F0D6F88046E0B114
:100770003E4E3378092B0BD9394800F0ADF80146CD
:100780003B48FFF701FE2846257000F087FCA5E7EF
:10079000344B33481A78344B197800F03BF93378EE
:1007A000013333700123237098E7032000F0B4F87D
:1007B000002836D000F046F9074600F049F9054612
:1007C00000F04AF9029000F059F98146284600F0FD
:1007D00062F8029AB9F1000F19D1284600F07CF8AE
:1007E0001A4E014632781A48FFF7CEFD284600F02F
:1007F00073F83378984201D1431C3370284600F0D7
:100800006BF80146134800F050F83A4604E7C6B2C8
:1008100000964B4639462846FFF772FE84F8008062
:1008200009E700F079F800287FF445AF012000F0D7
:1008300073F800287FF445AF05B0BDE8F08300BF32
:1008400059120020581200205A120020F3130020E1
:100850000686040825130020F21300205D120020F4
:100860002A130020F6130020F4130020F5130020B3
:1008700052860408024B1A78024B1A70704700BF68
:1008800058120020591200200078013801288CBF2E
:100890000020012070470078431E5842584170479D
:1008A0000078B0FA80F040097047002303700123FC
:1008B000417083700320704710B51C469DF80830C6
:1008C0004270012B18BF022303702246023032F01F
:1008D00049F8A01CC0B210BD407870470230704784
:1008E000034A012303FA00F01368184310607047AD
:1008F000F81B0020044901220B6802FA00F023EAE9
:1009000000030B60704700BFF81B0020014B002262
:100910001A607047F81B0020012303FA00F0024B15
:100920001B681840704700BFF81B0020054B1B7860
:100930005A1E012A02D80020FFF7D2BF0BB90120AE
:10094000FAE77047FD1B0020F8B507460C46154630
:100950001E4632F0CDF907EE900AFAEEE07AF5EE97
:10096000C07AF1EE10FA21DD2A462146104831F016
:10097000F9FF104B1F70104B1D7001F0E1FF0F4B82
:10098000187001F0D7FF0E4B18800E4B20461E70DA
:10099000FFF77AFF20B10320BDE8F840FFF7A0BFC2
:1009A0002046FFF77DFF08B10220F5E7F8BD00BF44
:1009B000001C0020FF1B0020341C0020FE1B002018
:1009C000321C0020FC1B00200FB407B5064B074962
:1009D0001B6805AAD868019238F0C4FC03B05DF822
:1009E00004EB04B0704700BF08070020908604089D
:1009F00010B50446002006F025FE32F071F92046BD
:100A0000024A0349BDE8104001F036BF4909000819
:100A10002D09000810B5044601F050FF014B227863
:100A20001A7010BDFD1B002010B501F08FFF0446A9
:100A300018B101460248FFF7C7FF204610BD00BFAE
:100A400090860408014B1878704700BFFF1B0020F8
:100A500000487047001C0020014B1878704700BF09
:100A6000341C0020014BB3F900007047321C0020F9
:100A7000014B93F900007047FE1B0020014B1878D2
:100A8000704700BFFC1B0020036818470B68036019
:100A900070477047024B002205201A70FFF720BFF5
:100AA000351C002008B5034805F0A5FC024B0022C8
:100AB0001A7008BD381C0020351C0020014B187826
:100AC000704700BF351C0020C36810B504460BB149
:100AD0009B689847204610BD38B50546064B45F83B
:100AE000283B044605F087FC2846FFF7EDFF20462B
:100AF00005F04CFC204638BDDC9D040810B50446CA
:100B0000FFF7EAFF204602F0C5FD204610BD0000B9
:100B100010B5034B03600446FFF7DEFF204610BD0F
:100B2000509E040838B5CB6804460D460BB15B688F
:100B30009847EB68E360204638BD000030B589B0C7
:100B400032F0D6F8102204460021684632F020F830
:100B5000204B00936946204B039304A8FFF7E2FF64
:100B6000032094FBF0F000EB4000241A0234E4B2BE
:100B700007EE904A9FED197AF8EE677A67EE877A6A
:100B800017EE900A45F046FD05460C4606F09EF924
:100B9000134B5A6B22B993F838300BB105F040FF74
:100BA0001048FFF791FF04A90E48FFF7BBFF2A4644
:100BB00023460B4805F007FC06F09EF904A8FFF752
:100BC00083FF6846FFF780FF074B01221A7009B0C8
:100BD00030BD00BF950A0008C4860408002474498B
:100BE000381C0020601C0020351C002010B5044675
:100BF000FFF78EFF204602F04DFD204610BD00009D
:100C000010B50C4C204605F099FB20460A4B40F8E5
:100C1000283B1022002131F0BBFF012384F838303B
:100C2000064B23602046064A0649BDE8104002F004
:100C300091BB00BF381C0020DC9D0408509E0408B6
:100C4000C8010020110B00080FB407B5064B04AA19
:100C50001B6852F8041BD868019238F083FB03B07C
:100C60005DF804EB04B070470807002010B50E488B
:100C700006F012FE0D4B04461878A0B900F0EEF90C
:100C800088B90B490A78E0B2531CDBB20A28094C38
:100C90000B7001D00D2805D10020A054BDE81040F4
:100CA00000F0C6B9A05410BD3C210020781C0020E3
:100CB0005E2500207A1C002000F1080373B504466D
:100CC00003600D46D9B1084633F01AFD0F2805EB35
:100CD0000006019007D9002201A9204623F0D8F987
:100CE000019B2060A36032462946206823F024FA45
:100CF000019B226863600021D15402B070BD01489D
:100D000018F032FFD08604081FB50E4B1022187061
:100D10000021684631F03CFF0B4B00930B480C4B15
:100D200003930022694606F049F8039B13B19B68C0
:100D3000684698470749084805B05DF804EB06F097
:100D4000BDBD00BF5F2500206D0C00088020002085
:100D5000C4860408FA8604083C210020F0B5834AC2
:100D6000834C1178237899428DB018BF1370032BF0
:100D700000F2AA80DFE813F0040032006100D30023
:100D8000002000F06BF9E0B100F08EF9054600F0AC
:100D90008FF978490646784806F090FD774800F0CC
:100DA00037F9774B774A1B681278014673489847A2
:100DB000754832462946FFF747FF0123237000207C
:100DC0002AE0012000F04AF908B3012024E00520C0
:100DD00000F044F9002877D005201DE0012000F044
:100DE0003DF980B16949644806F068FD634800F048
:100DF00013F9634B634A1B68127801465F489847B2
:100E000002232370E1E700F029F90028D7D102205E
:100E100000F024F928B102200DB0BDE8F04000F048
:100E200011B9032000F01AF9002876D1042000F04F
:100E300015F90028CBD00420EEE7042000F00EF9CD
:100E400000285AD000F04CF9514F4E4D4C4E00F056
:100E50005BF95049484806F031FD4F49474832F0A8
:100E60001FFB39784D48FFF7EFFE2A783978336851
:100E70004248984700234A493F483B7006F01EFD10
:100E800048496846FFF718FF3C4906A8FFF714FFDA
:100E9000694606A823F052FC074606A823F01CF971
:100EA000A7B9364800F0BCF833682A7801463348C1
:100EB0009847022000F0C6F803232370042000F0B6
:100EC000C1F8684623F008F90DB0F0BD052000F028
:100ED000C5F868B13449284806F0F0FC274800F00E
:100EE0009FF833682A780146244898470520E1E7AF
:100EF00000F002F90128E1D1ECE700F0AFF800289A
:100F00007FF45DAF012000F0A9F800287FF45DAF09
:100F1000032000F0A3F80028D6D003207CE70320AC
:100F200000F09CF880B12149134806F0C7FC134833
:100F300000F07AF8124B134A1B68127801460F48EA
:100F4000984700232370E8E700F088F800287FF432
:100F500036AF012000F082F800287FF436AF02207F
:100F600000F07CF800287FF456AF5FE7791C002082
:100F7000781C0020068704083C210020582100200E
:100F8000682500205F250020138704089587040842
:100F90005E250020A58704087A1C0020B987040874
:100FA000CF870408E6870408EB870408F587040860
:100FB00037B5104C104D204606F0DAFE2A460F4990
:100FC000204602F0C7F90E4B0E4C1A780E4B1A70E1
:100FD0004FF416530093032200230221204605F00C
:100FE000BDFA0A492A46204603B0BDE8304002F067
:100FF000B1B900BF60250020C8010020957D000820
:10100000781C002080200020791C0020810200082C
:1010100000230370012070470123037018467047B6
:1010200002230370012070470323037001207047DF
:10103000034A012303FA00F0136818431060704755
:1010400064250020044901220B6802FA00F023EA1B
:1010500000030B60704700BF64250020012303FAE2
:1010600000F0024B1B681840704700BF6425002049
:1010700038B50C4601460648154631F073FC054B61
:101080001D70054B1C70BDE838400220FFF7D0BF33
:101090007025002070290020712900200520FFF70D
:1010A000C7BF0620FFF7C4BF004870477025002067
:1010B000014B1878704700BF70290020014B186061
:1010C000704700BF68250020014B1860704700BFC3
:1010D0006C250020014B00221A70704772290020F5
:1010E00008B5034805F087F9024B00221A7008BDC5
:1010F0007829002072290020014B1878704700BF22
:10110000722900200000000000B589B010220021E3
:10111000684631F03DFD184B00936946174B039329
:1011200004A8FFF7FFFC05F0D1FE154B5A6B22B95E
:1011300093F838300BB105F073FC1248FFF7C4FC8C
:1011400004A91048FFF7EEFC09A3D3E900230C48DB
:1011500005F039F905F0D0FE04A8FFF7B5FC6846A4
:10116000FFF7B2FC084B01221A7009B05DF804FBCE
:10117000404B4C0000000000D5100008C486040855
:1011800078290020A02900207229002010B50C4CDD
:10119000204605F0D3F820460A4B40F8283B1022A1
:1011A000002131F0F5FC012384F83830064B236030
:1011B0002046064A0649BDE8104002F0CBB800BF01
:1011C00078290020DC9D0408509E0408C8010020F6
:1011D000110B00080FB407B5064B04AA1B6852F8A0
:1011E000041BD868019238F0BDF803B05DF804EB39
:1011F00004B0704708070020002000F05BBF00002B
:101200002DE9F041BDF81C50B5F5806F06460C463F
:1012100090461F4606D322482946FFF7DBFF0620EB
:10122000BDE8F081022000F0A1FC08B10720F7E73B
:101230003146022000F0F6FC4FFA88F1022000F05F
:101240002DFD3946022000F047FD0699022000F0EE
:1012500061FD2146022000F0C7FC8EB90B3C012C39
:1012600012D80121022000F0A1FC7DB90121022049
:1012700000F06EFD00F0D6FD0130D7D00020CFE7A2
:10128000012E01D10C2CECD00021EBE70021022033
:1012900000F05EFD2946022000F078FDEAE700BF7D
:1012A000068804087047000084B038B504AC84E8B0
:1012B0000F000220DDE9085400F058FC20B107209F
:1012C000BDE8384004B070470C2C15D921461148B0
:1012D000FFF780FF0C21022000F086FCA5B90B3C33
:1012E000012C15D80121022000F060FC00F09AFDCD
:1012F0000130E4D00020E3E7052CEFD82146054873
:10130000FFF768FF0621E6E7012D01D10C2CE9D09B
:101310000021E8E7968804080FB407B5064B074993
:101320001B6805AAD868019238F01CF803B05DF874
:1013300004EB04B0704700BF08070020BF88040812
:1013400084B010B502AC84E80F009DF80D1001299F
:1013500005D0BDE81040254804B0FFF7DDBF9DF87B
:10136000293033205BB301F009F840F04101C9B2E4
:10137000332000F0F8FF19213B2000F0F4FF9DF826
:1013800027309DF82A402BB31D21112000F0EBFFE0
:10139000402000F0F3FF00F03301402000F0E3FFB5
:1013A00000210F2000F0DFFF00210D2000F0DBFF07
:1013B000D4B10520BDE8104004B001F015B800F02C
:1013C000DDFF00F0BE0141F00101332000F0CBFF52
:1013D0001D21D1E71F21112000F0C5FF402000F0A2
:1013E000CDFF00F03F01D8E70620E3E7BF880408FF
:1013F00084B02DE9F04106AC84E80F000898BDF8F0
:1014000032609DF83450BDF842700B9CDDF82880A6
:1014100000F0CAFF1D2000F0B1FF9DF831309DF8AB
:10142000301041EAC3019DF8363041EA881141EAA3
:10143000430141EA8501C9B21D2000F094FF1E203E
:1014400000F09CFFC7F3012100F00C0041EA0411F9
:101450000143C9B21E2000F086FFF9B21F2000F040
:1014600082FF310A202000F07EFFF1B2212000F03F
:101470007AFF25B19DF83510222000F074FF9DF809
:1014800037306BB14B2000F079FF60F07F01C9B2BB
:101490004B2000F068FF9DF83810242000F063FF17
:1014A000062C4FF031000FD100F068FF00F0F8017A
:1014B00041F00501312000F056FF0C21BDE8F0415C
:1014C000372004B000F04FBF00F058FF00F0F801E3
:1014D00041F00301312000F046FF0A21EEE78021B0
:1014E000122000F040BF4021122000F03CBF07B5A1
:1014F000122000F043FF8DF807009DF80700C0F3AD
:10150000401003B05DF804FB2021122000F02BBF37
:1015100008B5192000F032FF030643BF4042C0F374
:101520008500404240F3870008BD84B010B502AC8E
:1015300084E80F009DF938401A2000F01FFF002CAE
:10154000B8BF8B3C4FEA2013B8BF0019BDE810406C
:10155000A8BF8B38184400B204B0704738B50546B0
:10156000132000F00BFF04460146284600F016FF4A
:10157000204638BD0FB407B5064B04AA1B6852F8C5
:10158000041BD868019237F0EDFE03B05DF804EB60
:1015900004B070470807002008B528B90848FFF7CD
:1015A000E9FF4FF0FF3008BD402905D90548FFF796
:1015B000E1FF6FF00100F6E7BDE8084000F0CEBDA6
:1015C000FE8804082A890408F8B5074601200D465C
:1015D00014461E4600F0CAFA08B10720F8BD394685
:1015E000012000F03DFB2946012000F01BFB71B2F9
:1015F000012000F053FBBDF81810012000F06CFB37
:101600000799012000F086FB2146012000F0ECFA4A
:1016100065B90B3C012C0DD80121012000F0C6FA60
:1016200000F0D2FB0130D8D00020D7E7012D01D146
:101630000C2CF1D00021F0E784B038B504AC84E87C
:101640000F000120DDE9085400F090FA20B10720D6
:10165000BDE8384004B070479DF91C0000F010FC54
:1016600050BB012000F082FA0028F0D10C2C15D9D3
:1016700021461248FFF77EFF0C21012000F0B4FA4A
:10168000A5B90B3C012C15D80121012000F08EFAE0
:1016900000F09AFB0130DAD00020D9E7052CEFD812
:1016A00021460648FFF766FF0621E6E7012D01D136
:1016B0000C2CE9D00021E8E70120C9E7968804084E
:1016C0000FB407B5064B07491B6805AAD8680192F5
:1016D00037F048FE03B05DF804EB04B0704700BF7C
:1016E000080700206489040884B070B504AC84E85D
:1016F0000F0009209DF9404000F040FE06465A20A8
:1017000000F03CFE9DF8103003F0FD03012B14BFE8
:1017100000238023054606F07F001843030600F0EF
:10172000F00127D5112CCBBF45F0070505F0F805D2
:10173000EDB245F0040505F00703072B12D1142C78
:10174000A8BF1424052CB8BF0524631F1943C9B2D0
:10175000092000F008FE2946BDE870405A2004B078
:1017600000F001BE112CA8BF1124022CB8BF022426
:10177000A31EEBE70E2CA8BF0E2444EAE474013448
:101780002143E4E784B008B50DF1080C8CE80F00A4
:101790009DF80D10012905D0BDE80840124804B09D
:1017A000FFF78EBF9DF827309BB1F521112000F087
:1017B000DAFD402000F0E2FD00F03301402041F06E
:1017C000400100F0D0FDBDE80840032004B000F067
:1017D0000BBEF721112000F0C6FD402000F0CEFD29
:1017E00000F03F01EAE700BF6489040884B02DE9F6
:1017F000F0418AB010AC84E80F009DF94C3008939A
:1018000014AD0FCD6C46159EBDF85A70DDF85080B2
:101810000FC495E80F0084E80F0010AB0FCBFFF763
:1018200063FF129800F0C0FD9DF85F306BB14B2054
:1018300000F0A4FD60F07F01C9B24B2000F093FDE1
:101840009DF86010242000F08EFD1D2000F096FD14
:101850009DF859309DF8581041EAC3019DF85C305D
:1018600041EA881141EA83019DF85E3041EA430173
:10187000C9B21D2000F077FD1E2000F07FFD00F0B2
:101880000F0141EA0611C9B21E2000F06CFD390AB1
:10189000202000F068FD2120F9B200F064FD062E42
:1018A0004FF0310010D100F069FD00F0F80141F077
:1018B0000501312000F057FD0C2137200AB0BDE8AA
:1018C000F04104B000F04FBD00F058FD00F0F80109
:1018D00041F00301312000F046FD0A21EDE7082127
:1018E000122000F040BD08B568B1332000F046FD7D
:1018F00000F0BE01332000F036FD19213B20BDE889
:10190000084000F030BD332000F038FD00F0BE018B
:1019100041F00101332000F026FD1D21EEE738B52E
:10192000044622200D4600F01EFD00210E2000F08E
:101930001AFD00210D2000F016FD012000F01EFD13
:1019400030F0F80304D100F07DFD012005F06EFDBC
:1019500029462046BDE8384000F01BBD0FB407B54E
:10196000064B04AA1B6852F8041BD868019237F092
:10197000F9FC03B05DF804EB04B0704708070020E1
:1019800010B50A4C21788142024605D00848FFF77D
:10199000E5FF4FF0FF3004E0022001F001F808B944
:1019A000207010BD0348FFF7D9FFF2E7302A00206E
:1019B00098910408EE91040808B5044804F01BFD52
:1019C00000F043FD024B01221A7108BDC02900201E
:1019D000002A002013B5174C2379022B03D0032BC8
:1019E00019D002B010BDFFF75DFCFFF7E5FF032043
:1019F00000F0D6FF012808D000230F4A0093146896
:101A000019461A460120A047EBE70C4802B0BDE892
:101A10001040FFF7A3BF204600F05AFD94F82800BD
:101A200000F047FD0123237102B0BDE8104000F033
:101A3000E7BF00BF002A0020342A00206E9104086E
:101A40002DE9F041354C267988B046B1344831460D
:101A5000FFF784FF4FF0FF3008B0BDE8F081314B55
:101A60001860314B31481960FFF778FF4FF48070F0
:101A700030F080FE2E4B186028B92E48FFF76EFF1D
:101A80006FF00100E8E74FF4FA6262620E222273FF
:101A90000B22294B626108224FF00108A360628388
:101AA00004230522204684F820306285237084F8C0
:101AB00005802677E67784F81E8084F82160266109
:101AC00084F81980667784F8228084F8288000F0F2
:101AD000FFFC2546014605F8100B1848FFF73EFFAE
:101AE0000FCD6F460FC795E80F0087E80F0094E809
:101AF0000F00FFF7A1FDA5F1100CBCE80F006F4629
:101B00000FC795E80F0087E80F0094E80F00FFF774
:101B1000CBFB84F8048030469EE700BF002A0020FB
:101B2000658A0408382A0020342A0020B68A04086E
:101B3000B8290020E38A04082021F6361D8B04080A
:101B400008B5042000F02CFF012805D10648FFF756
:101B500005FF4FF0FF3008BDFFF72EFF022000F019
:101B60001FFF0020F7E700BF338B040838B5054698
:101B700018B90A48FFF7F2FE05E0094C217829B1AF
:101B80000848FFF7EBFE4FF0FF3004E0084600F096
:101B900007FF08B9257038BD0348EBE7438F0408F9
:101BA000302A0020808F0408C38F040838B504460B
:101BB0000D4600F01FFF0128084B06D11A78A242FB
:101BC00003D1074B00201D7638BD06481A78214600
:101BD000FFF7C4FE4FF0FF30F6E700BF302A0020C9
:101BE000002A0020E48E040838B504460D4600F0B3
:101BF00001FF0128084B06D11A78A24203D1074BF6
:101C000000205D6138BD06481A782146FFF7A6FE20
:101C10004FF0FF30F6E700BF302A0020002A0020F6
:101C2000858E040838B504460D4600F0E3FE012811
:101C3000084B06D11A78A24203D1074B00201D6140
:101C400038BD06481A782146FFF788FE4FF0FF306E
:101C5000F6E700BF302A0020002A0020F78F040892
:101C600038B504460D4600F0C5FE0128084B06D1E4
:101C70001A78A24203D1074B00201D7338BD0648D5
:101C80001A782146FFF76AFE4FF0FF30F6E700BFF3
:101C9000302A0020002A0020098D040838B50446A7
:101CA0000D4600F0A7FE0128084B06D11A78A24283
:101CB00003D1074B00205D7638BD06481A782146CF
:101CC000FFF74CFE4FF0FF30F6E700BF302A002050
:101CD000002A0020268E040838B504460D4600F080
:101CE00089FE0128084B06D11A78A24203D1074B7E
:101CF00000205D8338BD06481A782146FFF72EFE86
:101D00004FF0FF30F6E700BF302A0020002A002005
:101D10005090040838B504460D4600F06BFE0128CB
:101D2000084B06D11A78A24203D1074B00209D60D0
:101D300038BD06481A782146FFF710FE4FF0FF30F5
:101D4000F6E700BF302A0020002A00201091040886
:101D500038B504460D4600F04DFE0128084B07D16A
:101D60001A78A24204D1074B002083F8225038BDD4
:101D700005481A782146FFF7F1FD4FF0FF30F6E7EE
:101D8000302A0020002A0020B290040838B504460A
:101D90000D4600F02FFE0128084B06D11A78A2420A
:101DA00003D1074B00205D8538BD06481A782146CF
:101DB000FFF7D4FD4FF0FF30F6E700BF302A0020D8
:101DC000002A0020C98D0408F0B589B000F012FE89
:101DD0000128114B18D11F78012F15D10F4E06F194
:101DE000100500F035FB0FCD6C460FC495E80F00D1
:101DF00084E80F0096E80F00FFF7F8FC3846FFF77D
:101E0000BFFD002009B0F0BD05481978FFF7A6FD19
:101E10004FF0FF30F6E700BF302A0020002A0020F4
:101E2000A58C0408F0B589B000F0E4FD0128114B41
:101E300018D11F78022F15D10F4E06F1100500F0B2
:101E400007FB0FCD6C460FC495E80F0084E80F0028
:101E500096E80F00FFF7CCFA3846FFF791FD002017
:101E600009B0F0BD05481978FFF778FD4FF0FF3055
:101E7000F6E700BF302A0020002A0020418C040829
:101E8000F0B58BB0044600F0B5FD0128104B17D11A
:101E90001F78012F14D10F4E089406F110050FCDB5
:101EA0006C460FC495E80F0084E80F0096E80F0019
:101EB000FFF71AFC3846FFF763FD00200BB0F0BDBA
:101EC00005481978FFF74AFD4FF0FF30F6E700BFED
:101ED000302A0020002A0020658D04080E4B1B7953
:101EE000022B13B510D1FFF7FAFAFFF765FD0320B7
:101EF00000F056FD012809D00023084A0093146819
:101F000019461A460120A04702B010BD044802B08D
:101F1000BDE81040FFF722BD002A0020342A00202F
:101F20005B8B04082DE9F041454E3479022C8AB0D0
:101F300067D1FFF7D8FAFFF7DAFA012829D1FFF7BE
:101F4000E3FA96F82250ADB9FFF736FD032000F012
:101F500027FD012808D03B4B00951E682A462B46DA
:101F600029462046B04711E037480AB0BDE8F041A5
:101F7000FFF7F4BC00F03EFD0328F5D10023314A01
:101F80000093156819461A462046A8470AB0BDE8CE
:101F9000F081FFF7BDFA06F11005089007460FCD56
:101FA0006C460FC495E80F0084E80F0096E80F0018
:101FB000FFF7BBFA254C80462068FFF7CFFA96F86A
:101FC000226005468EB9FFF7F7FC032000F0E8FC1D
:101FD000012808D01B4B00971F68216843462A46FA
:101FE0003046B847D2E71A48BFE700F003FD0328A0
:101FF000F9D1144B00971E68216843462A460020F9
:10200000B0E7032C14D1134804F0F5F9FFF767FC8F
:10201000FFF7D2FC204600F0C3FC012806D00E4B8F
:102020001B6800200AB0BDE8F04118470B489CE748
:102030000B4821460AB0BDE8F041FFF78FBC00BF56
:10204000002A0020342A00209E890408B829002094
:10205000DA890408C0290020382A0020158A0408DB
:10206000498A04082DE97043044699460D46904676
:1020700004F02CFF636B23B994F838300BB104F0F3
:10208000CFFC04F12806AE420BD03046FEF71CFD13
:102090003EB1EB681BB15B68294630469847EB6858
:1020A000636342464B46204604F08DF9BDE8704319
:1020B00004F022BFF0B506468DB0012000F070FCA0
:1020C000012806D11E48FFF749FC4FF0FF300DB044
:1020D000F0BD1C4B1C4F18684FF48072002107F1B3
:1020E000100530F055FD0FCD6C460FC495E80F007C
:1020F00084E80F0097E80F00FFF722F902233B71F5
:10210000E6B11022002108A830F042FD0F4B0893E1
:1021100030460F4B0B9343F08BFE00220D4B43F0E8
:1021200001FF44F097FA02460B460B4808A9FFF757
:1021300099FF08A8FEF7C8FC0020C8E73046C6E7AC
:102140008A8B0408B8290020002A0020D51900082D
:10215000C486040800408F40C0290020F0B5304CF0
:102160002379032B8FB006460D4606D12D48FFF785
:10217000F5FB4FF0FF300FB0F0BD042000F010FC75
:102180000128F3D0FFF718FC0A2005F04FF90220D0
:1021900000F006FC012000F003FC012801D12248D8
:1021A000E5E763791BB1012B03D000270CE01F4842
:1021B000DDE794F82100FFF796FB2946304684F8C6
:1021C0002E50FFF7ACFB676A194E08970FCE6D468D
:1021D0000FC596E80F0085E80F0094E80F00FFF7A1
:1021E000D1FA0323102200210AA8237130F0D0FC79
:1021F000104B0A933846104B0D9343F019FE002202
:102200000E4B43F08FFE44F025FA02460B460C4875
:102210000AA9FFF727FF0AA8FEF756FC0020AAE745
:10222000002A0020B18B0408E18B0408088C040804
:10223000102A0020D5190008C486040800408F40E9
:10224000C029002010B50C4C204604F077F8204639
:102250000A4B40F8283B1022002130F099FC012362
:1022600084F83830064B23602046064A0649BDE80C
:10227000104001F06FB800BFC0290020DC9D0408A9
:10228000509E0408C8010020110B000810B5044638
:10229000044B40F8B83BD4F8C4300BB19B68984766
:1022A000204610BD6C9F04080FB407B5064B0749C4
:1022B0001B6805AAD868019237F054F803B05DF89E
:1022C00004EB04B0704700BF0807002051920408D7
:1022D000F8B50D4C0D4F23681646E2681B040D46F9
:1022E000136040F08001094804F0C8FA013D2E4413
:1022F000B54205D015F8011F384604F0BFFAF7E7DC
:10230000A36822681A60F8BDF82A0020302B00204C
:10231000F8B50E4C0E4F23681646E2681B040D46B6
:10232000136000F07F010A4804F0A8FA013D2E4432
:10233000B54206D00021384604F0A0FA05F8010F96
:10234000F6E7A36822681A60F8BD00BFF82A0020EB
:10235000302B002010B50446FFF798FF204601F00F
:1023600099F9204610BD07B502AB012203F8011D03
:102370001946FFF7ADFF03B05DF804FB07B5012276
:102380000DF10701FFF7C4FF9DF8070003B05DF8EA
:1023900004FB0A4601460020FFF79ABF0A460146A1
:1023A0000020FFF7B5BF000010B543F041FD0CA3BE
:1023B000D3E9002343F0E0FE44F08CF80446C0F378
:1023C00007410620FFF7CFFFC4F307210720FFF7DF
:1023D000CAFFE1B20820BDE81040FFF7C4BF00BF4C
:1023E0000000000080844E40144910B50A7804466D
:1023F00090B932B901230B70114BDA681B681B04CA
:1024000013600120FFF7BAFF00F0F801214301201B
:10241000BDE81040FFF7A7BF094B2AB11A6800209A
:102420000870D96812040A60032C1A6803D0DB68AC
:1024300012041A60E5E79B68FBE700BF0C2C002044
:10244000DC2A00200120FFF7CFBF0020FFF7CCBF20
:1024500010B504460120FFF791FFC0F3C01084427D
:1024600026D0012C13D0FFF7F0FF0120FFF786FFE5
:1024700000F07F010120FFF776FF00214020FFF7E9
:1024800072FF30214120BDE81040FFF76CBFFFF71D
:10249000DCFF2046FFF772FF60F07F01C9B22046E3
:1024A000FFF761FF00214020FFF75DFF0021E9E712
:1024B00010BD10B504460120FFF7CAFF2CB134212E
:1024C0003920BDE81040FFF74EBF1221F8E70000A9
:1024D0002DE9FF47594C054604F0F8FC0121204640
:1024E00000F000FC04F008FD2368E2681B041360A0
:1024F000012004F09BFF04F0E9FC2046002100F0DD
:10250000F1FB04F0F9FC062004F090FF2E784C4C0F
:10251000042E1CD104F0DAFC0021204600F0E2FB7E
:1025200004F0EAFC012004F081FF63681A68236864
:102530001A4214BF0126002604F0C8FC20460121DF
:1025400000F0D0FB04F0D8FC012004F06FFF2368FA
:10255000E2683C483C4C1B0413603C4B9A681B6887
:1025600013600821002204F067F9394804F050FF95
:102570000020FFF739FF1022ACBB2146684630F03F
:1025800007FB69463348344C04F065F86846FEF7AB
:102590009BFA10227CBB2146684630F0F9FA694666
:1025A0002E48DFF8C8802E4C04F055F86846FEF738
:1025B0008BFA4FF0030900235F1CDBB2D8F8002030
:1025C000B2FBF9F29A421ED903EB430304EB030A70
:1025D000E05CFFF73DFF9AF802109AF80100FFF760
:1025E000C2FE3B46E8E70021684630F0D1FA1D4BB9
:1025F00000940393C5E70021684630F0C9FA194BEF
:1026000000940393CBE76879174CFFF721FF95F807
:102610002800FFF74EFF4220FFF7B0FE38B92046F2
:10262000FFF742FE4FF07E5004F0F2FEF3E7A86899
:10263000FFF7BAFE304604B0BDE8F087142B002047
:10264000DC2A0020302B0020251F0008F82A00205B
:10265000CDCCCC3D3C2A0020DD1E00088C2A002079
:102660001E920408C486040851920408D001002078
:1026700073B5224D224C234E0A21284603F090FFC9
:102680002846214D2246314600F064FE132128469B
:1026900003F086FF2246314628461C4D00F05AFEC4
:1026A0004FF0FF330093062205230721284604F04C
:1026B00017F922461649284600F04CFE154B1C24FB
:1026C00022461846002130F063FA162103F01EFF5F
:1026D000114B22461846002130F05AFA002103F02F
:1026E00002FF0E4B22460021184630F051FA2121FC
:1026F00002B0BDE8704003F0F6BE00BF3C2A0020E7
:10270000C8010020F96500088C2A0020302B002029
:102710008D220008F82A0020142B0020DC2A00203B
:102720000FB407B5064B04AA1B6852F8041BD868FF
:10273000019236F017FE03B05DF804EB04B0704769
:102740000807002013B5084B0024CDE9003401220E
:10275000082307212046FEF753FDFEF74DFD034BEE
:102760001C7002B010BD00BF2021F6360D2C0020D9
:1027700010B5044648B9FFF7E3F9FFF7E3FF084B4C
:102780001B682046BDE810401847012807D1FFF715
:10279000D7F9FFF7D7FF024B02201B68F2E710BD05
:1027A000502C00202DE9F041884615461F469DF922
:1027B000186000283BD1202A03D92648FFF7B0FF34
:1027C0002025254C2A464146204630F0CBF8234BA5
:1027D0001F80234B1E7026782746FEB9214BA47814
:1027E0001B78A34201D0FF2C1BD1A4F1FF035C4254
:1027F0005C4101261C4B1B78ABB9FFF7A1F9FFF731
:10280000A1FF012E24D1194B787819492A1F1D6880
:10281000D2B22346AC46BDE8F041604700242646CC
:10282000E8E73446E6E71348FFF77AFFE9E70138BF
:1028300001280DD80C4B1B782BB9FFF781F9BDE8A7
:10284000F041FFF77FBF0B48BDE8F041FFF768BFDD
:10285000BDE8F0815E9304080E2C00205A2C002065
:10286000582C00205C2C00200D2C0020542C002023
:10287000122C0020A39304080A4B10B518700A4BC1
:1028800019600A4B0A491A6004460A48FFF7D8F84B
:10289000094B00225C701A70FFF752F9BDE8104036
:1028A000FFF750BF5C2C0020502C0020542C00203F
:1028B000A5270008712700082E2C0020F7B5184F17
:1028C0003C7834B117482146FFF72AFF012003B0B6
:1028D000F0BD1C2905D914482022FFF721FF032051
:1028E000F5E7124D0E1DAA70F6B20A460146281DE4
:1028F0002C70EE7030F036F8FFF722F90C4A0823FE
:10290000CDE900322146012307220E20FEF75CFEAE
:1029100031462846FEF740FE01233B702046D6E7AD
:102920000D2C002073920408B49204082E2C002071
:102930002021F636014BB3F9000070475A2C0020D5
:10294000014B93F900007047582C002010B5074B3D
:102950001C78012C05D106482146FFF7E1FE2046F0
:1029600010BD044B18700020FAE700BF0D2C0020AA
:10297000FE9204085C2C00200FB407B5064B0749F3
:102980001B6805AAD868019236F0ECFC03B05DF82C
:1029900004EB04B0704700BF080700201894040837
:1029A00037B501460D480E4A037803EB83052A44E8
:1029B000545C012C06D00B4B2B445B5C037020460F
:1029C00003B030BD0848642202FB030000900748B2
:1029D00002FB01020648FFF7CFFFF0E75D2C002065
:1029E00004940408F0930408C8030020D4010020D4
:1029F00018940408014B1878704700BF5D2C002024
:102A0000014B00221A7070475D2C002043692DE9AC
:102A1000F0410D46D907044628D58168334F8268B6
:102A2000334E836833483940B94202EA060204BF94
:102A30000127A760B24203EA000304BF4FF4807687
:102A4000A660834204BF4FF48030A06027488142D3
:102A500005D027498A4202D0264A934206D1264B06
:102A6000264A1B6852F8250001219847E2686369ED
:102A7000920708D09F0706D51F4B204A1B6852F8C3
:102A8000250000219847A169626963698E070AD50C
:102A9000900508D5190406D5174B184A1B6852F83B
:102AA000250005219847A7696669626917F0040740
:102AB00006F4806609D046B1120406D50E4B0F4AC3
:102AC0001B6852F825000721984763695FB156B12A
:102AD0001B0408D5084B094A1B6852F8250002213F
:102AE000BDE8F0411847BDE8F08100BF03000004D5
:102AF0000003000800000310682C0020602C002058
:102B000000210148FFF782BF00640040FFF7F8BFD3
:102B1000FFF7F6BF01210148FFF778BF00680040CA
:102B2000FFF7F8BFFFF7F6BF30B5036891FAA1F4DD
:102B3000B4FA84F491FAA1F10325B1FA81F16400A9
:102B400005FA04F4490023EA040302FA01F11943E7
:102B5000016030BD00B5002389B007286FD8DFE8D9
:102B600000F00413202D3A4754610093364B374848
:102B70001A6B42F001021A631B6B03F0010300930E
:102B8000009B09B05DF804FB01932F4B30481A6B92
:102B900042F002021A631B6B03F002030193019BD4
:102BA000EFE70293284B2B481A6B42F004021A639A
:102BB0001B6B03F004030293029BE2E70393224B97
:102BC00025481A6B42F008021A631B6B03F00803D6
:102BD0000393039BD5E704931B4B20481A6B42F0E9
:102BE00010021A631B6B03F010030493049BC8E7E5
:102BF0000593154B1A481A6B42F020021A631B6B9F
:102C000003F020030593059BBBE706930E4B154885
:102C10001A6B42F040021A631B6B03F040030693E9
:102C2000069BAEE70793084B0F481A6B42F08002F1
:102C30001A631B6B03F080030793079BA1E70B4804
:102C400004F0ACFC00209CE7003802400000024089
:102C50000004024000080240000C02400010024044
:102C60000014024000180240001C0240EC960408C8
:102C7000431C10B5044604D176220649064803F0E9
:102C80000FFF2046002100F051FE04F00F04012048
:102C9000A04010BD0D9704086797040870B504465E
:102CA0004B1C0E46218216D0C1F30310FFF752FFD2
:102CB00005463046FFF7DCFF238A074A656103F0CB
:102CC0000F03206052F82330A36105F1100318357B
:102CD0006360A560E56070BD6C9A0408B0F91000EF
:102CE00000F0BCBE0A4619B981694069FFF71CBFF4
:102CF0000122F9E74C23F0B54343224E224F1A1D1F
:102D0000324400244FF0010E1E448C4205D101468E
:102D1000BDE8F0401D4804F041BC33680EFA04F5EC
:102D20001D422BD0136B7D690EFA03F32B4225D085
:102D3000D2F818C07B61156805B3FA6833EA02025D
:102D400003D1BA6833EA020214D10F4A916833EA18
:102D5000010103D1D26833EA02020DD1DCF8102060
:102D6000134214BF01210221094B28461B68BDE80C
:102D7000F04018470221F7E70121F5E7013404325A
:102D8000C3E700BF6C2C0020003C0140A197040861
:102D9000802E002006210846FFF7ACBF052108461B
:102DA000FFF7A8BF01210420FFF7A4BF01210320E2
:102DB000FFF7A0BF01210220FFF79CBF01210846B9
:102DC000FFF798BF01210020FFF794BF012910B53C
:102DD00018D11B4C838952B1A26803F00F039940AC
:102DE0001143A160836843F00103836010BDA268B2
:102DF00003F00F03994022EA0101A160836823F0E8
:102E00000103F2E70229F1D10D4983895AB1CC6857
:102E100003F00F03012202FA03F32343CB6083681C
:102E200043F00203E1E7CA6803F00F03012404FA48
:102E300003F322EA0303CB60836823F00203D4E7A1
:102E4000003C0140B0F90C3099B270B501F00F06AA
:102E500006F00C0404F1804404F59C3401F00301F5
:102E6000A56889000F228A40C3F3031325EA0205EF
:102E70008B402B43A3600F4B01221968B2401143D2
:102E800019608468E50742BF996811439960A107FA
:102E900042BFD9680A43DA6090F90030002B08DBA2
:102EA0005909012203F01F0302FA03F3024A42F810
:102EB000213070BD003C014000E100E02DE9F04F01
:102EC00092464A1C85B080460C4666D0002203928A
:102ED000334A344F516C41F480415164526C02F4D6
:102EE00080420392039A04F00F090C2202FB09723C
:102EF000C4F303105568062D47D8DFE805F0043AFF
:102F00003C3E40424400284E0193FFF723FE0C2133
:102F100001FB09F17A1857F801E0244FA8F80C409A
:102F20004C21694301247B5892F90820C8F80450C9
:102F300004FA0EF44FF0000B1C4388F80020C8F888
:102F400008B07C50132101FB05E507EB8501019BCF
:102F50004B60174BC861C3F800A0164BC1F8349002
:102F60009B681032404643F82260FFF76BFF5846DB
:102F700010E0114EC8E7114EC6E7114EC4E7114EDE
:102F8000C2E7114EC0E7114EBEE7114804F006FB40
:102F90004FF0FF3005B0BDE8F08F0846FAE700BFFC
:102FA00000380240CC970408C52D00086C2C002086
:102FB000802E002000ED00E0BD2D0008B52D00089A
:102FC000AD2D0008A52D00089D2D0008952D0008A9
:102FD0007A9704088389184A03F00F03012110B57A
:102FE00001FA03F39468DB431C409460D4681C40EE
:102FF000D46014682340136090F90030002B0CDB80
:103000005A0903F01F0301FA03F320320B4941F878
:103010002230BFF34F8FBFF36F8F90F90030002B3A
:1030200009DB5A09012103F01F0301FA03F360329F
:10303000024941F8223010BD003C014000E100E0AF
:10304000838903F00F020C235343104A70B5446880
:10305000D658FFF7BFFF4C210D4A6143012000FA0B
:1030600006F55058132303FB046320EA0500505073
:1030700002EB830000214160981D0C3302EB8000BD
:1030800002EB83034160596070BD00BFCC97040818
:103090006C2C002008B503F0C1F8002008BD00002A
:1030A00008B50A4B1B684BB103F034FA04F033F94E
:1030B0004FF47A72002343F07DFA08BD03F002F961
:1030C0004FF47A73B0FBF3F008BD00BF842E0020EC
:1030D00010B588B003F0FAFE052101A803F016FA36
:1030E0000424039B019A1A60962004F09FF9019B27
:1030F000049A1B041360962004F098F9013CF0D167
:103100000424039B019A1A604FF4C87004F08EF9EE
:10311000019B049A1B0413604FF4C87004F086F9F5
:10312000013CEED1DCE7000070B50D46A0B00446CE
:1031300003F0CCFE2B4622468021684637F060FD26
:10314000051E03DC03F0D8FE20B070BD094B1B68E0
:1031500023B903220221084800F0D4FE064E0024C1
:103160001DF804103046013401F0AEF8A542F7D145
:10317000E8E700BFCC2E0020F84600200FB407B5CA
:1031800004A951F8040B0191FFF7CEFF03B05DF8DD
:1031900004EB04B07047000008B502F0EDFF01F049
:1031A000F1F802F0D9FF02F0E7FF024B01221A60AA
:1031B00008BD00BF842E0020002070470368012254
:1031C0001B6900211847036800221B691146184734
:1031D00003681B69184703689B69184703689B6A63
:1031E000184700290CBF6FF018000020704701201D
:1031F00070471120704770476FF01C0070476FF0E8
:10320000150070470120704700207047704700008C
:10321000F8B5074E15460C468F18BC4205D014F879
:10322000011B304601F050F8F7E72846F8BD00BF13
:10323000F846002038B58DB215F0010405D00848D5
:1032400000F0DCFD041C18BF0124EB0605D5044882
:1032500000F0EAFD08B144F01004204638BD00BF7C
:10326000F846002010B504462FF08CFA204610BD19
:1032700010B50C462AB1044801F014F82070012062
:1032800010BD104610BD00BFF846002038B51D46E1
:10329000074B0360074B1B68044633B9064800F030
:1032A00031FE2946044800F0F5FD204638BD00BF38
:1032B00014990408CC2E0020F84600200020704706
:1032C0000020704707B5002300931A4603490448BD
:1032D00004F086F903B05DF804FB00BFFF98040812
:1032E0002901018008B5012000F036F80C4A136866
:1032F00010B51844EFF30881884205D3094B0C221E
:103300001A604FF0FF3010BD07490C6824B107491F
:10331000096821448842F1D21060184610BD00BFF0
:103320005806002098460020982E00209C2E002051
:10333000074C08B52368054698682EF049F92368BC
:10334000D8682EF045F90DB1FFF7C2FEFEE700BFC9
:10335000080700200120704708B5FFF7E9FF0120AA
:10336000704700212FF090BD2EF06CB97047704768
:103370007047704708B5FFF7F9FF08BD08B5FFF7BC
:10338000F6FF08BD08B5FFF7F3FF08BD08B5FFF766
:10339000F0FF08BD10B5037803F00303012B0446CA
:1033A0000CD02BB140F2A9520549064803F078FB36
:1033B000237843F002032370012010BD002010BDCC
:1033C00098990408EF99040810B5037803F00303F3
:1033D000022B044605D040F2B1520549054803F0DE
:1033E0005FFB237823F0030343F00103237010BD38
:1033F00098990408159A04083F2870B504462FDCF4
:10340000184D55F820305A1C13D1022811DCFFF753
:1034100057FF034658B92046FFF750FF034630B91F
:10342000114E3378BFF35B8FDB0704D50F4B45F8A4
:103430002430184670BD3046FFF7ACFF0028F5D0A9
:103440004FF41653032202210848FFF71FFF3046AE
:10345000FFF7BAFF064A07490448FFF77BFFE5E795
:103460000023E6E758050020882E0020942E002037
:10347000C80100200D32000838B50546FFF7BCFF33
:103480000B4B002443F8254030B92DF067FF09238A
:1034900003604FF0FF3038BD03685B699847051E35
:1034A00004DA2DF05BFF6D420560F2E7204638BD7F
:1034B00058050020FFF7E0BF38B50C461546FFF76A
:1034C0009BFF38B92DF04AFF092303604FF0FF340A
:1034D000204638BD03682146DB682A469847041E0B
:1034E000F6DA2DF03BFF64420460EFE708B5131EE7
:1034F00006DA2DF033FF162303604FF0FF3008BDCE
:1035000004D0FFF7D9FF40EAE07008BD184608BDB7
:1035100038B50C461546FFF76FFF38B92DF01EFF82
:10352000092303604FF0FF34204638BD036821466D
:103530009B682A469847041EF6DA2DF00FFF644276
:103540000460EFE7002A08B503DBBDE80840FFF799
:10355000DFBF2DF003FF162303604FF0FF3008BDDF
:1035600010B5FFF749FF044628B92DF0F7FE0923EF
:103570000360204610BD0368DB699847041EF8DA33
:103580002DF0ECFE644204600024F2E71FB5042233
:103590000C4640230DEB020101900DF109008DF85E
:1035A00008302FF0DFF9214602A82EF0D9F90446A1
:1035B00030B10198FFF7D4FF10B12046FFF7D1FEDC
:1035C000204604B010BDFFF7CBBF38B50C461546FA
:1035D000FFF712FF38B92DF0C1FE092303604FF049
:1035E000FF34204638BD036821461B692A469847A8
:1035F000041EF6DA2DF0B2FE64420460EFE7FFF736
:10360000E4BF38B50D46FFF7F7FE044630B92DF09C
:10361000A5FE092303604FF0FF3038BD0368DB6966
:103620009847002814BF4FF400534FF400436B60D9
:10363000236820469B6A98472861002038BDFFF721
:10364000E0BF000037B505462FF094F8044630B9C6
:10365000009003462A460349034803F0C1FF204671
:1036600003B030BD7B9904081F01018037B50546C2
:103670002FF080F8044630B9009003462A460349EB
:10368000034803F0ADFF204603B030BD5C99040849
:103690001F0101802FF076B82FF074B8034610B5E3
:1036A00053F8042B044602B9036022689A4204D0FE
:1036B0005E220349034803F0F3F9206810BD00BF00
:1036C0008C980408EB98040810B504460948FFF7E5
:1036D000E5FF0023084A194652F82300A04208BF1C
:1036E00042F823100133402BF6D10248FFF7D6FFF2
:1036F00010BD00BF8C2E00205805002010B50F48CB
:10370000FFF7CCFF0E4B032453F824206AB1013499
:10371000402CF9D12DF022FE182303600748FFF753
:10372000BDFF4FF0FF34204610BD4FF0FF3203487D
:1037300043F82420FFF7B2FFF5E700BF8C2E0020EE
:103740005805002010B50446FFF7D8FF0028A4BF95
:10375000014B43F8204010BD5805002070B50646C7
:103760000C46FFF7EFFF054690B12146FFF70EFF2D
:10377000044630B9074B53F82520964203D143F84D
:103780002500204670BD2DF0E9FD09230360F8E710
:103790000446F6E7580500200EB42DE9F04185B047
:1037A0000546FFF7ABFF041E13DB0023294602A8E2
:1037B000019303F0C7FD02A803F016FE1B4D064659
:1037C00068B92DF0CBFD1323036045F824604FF05A
:1037D000FF34204605B0BDE8F04103B0704702A8B1
:1037E00003F0F0FD074602A837B103F0F4FD0190A5
:1037F000019B45F82430ECE703F0DBFD064600288A
:10380000DFD0036802A8D3F8088003F0C7FD0B9B44
:10381000024601A93046C04706460028E8D02DF0F0
:103820009DFD7642066045F82470D0E758050020DB
:1038300073B50E46184905462FF0C6FC044620B95C
:10384000FFF7DAFD204602B070BD144928462FF07C
:10385000BBFC20B90120FFF7CFFD0124F2E710499E
:1038600028462FF0B1FC20B90220FFF7C5FD022445
:10387000E8E72B78402B07D10422691C0DEB0200EE
:103880002FF070F8019CDDE726F400412846FFF791
:1038900083FF0446D6E700BF5C9A0408639A0408D5
:1038A000549A040870477047074B08499A680848BB
:1038B00010B5043A52F8044F41F8044F8142F9D14F
:1038C0004FF000529A6010BD00ED00E0FCFFFF1FBA
:1038D000C001002008B5FFF7E7FFFFF75DFCFFF729
:1038E000E2FF08BD08B5FFF7DDFFBDE80840FCF7C3
:1038F000E3BC30B5C36891FAA1F4B4FA84F491FA48
:10390000A1F10325B1FA81F1640005FA04F449003C
:1039100023EA040302FA01F11943C16030BD012A10
:1039200002D0022A18BF0022FFF7E3BF2DE9F041C1
:103930000E46411C044604D13E224449444803F04B
:10394000AFF804F00F08434BC4F3031053F82850AA
:10395000FFF700F906F007070446836895FAA5F11A
:10396000B1FA81F195FAA5F20320490000FA01F1BC
:10397000B2FA82F223EA01035200022101FA02F2B2
:103980001343A36087425AD8DFE807F05E1D021D8B
:10399000B8F1070FC6F303203BD9626A2B0A93FAEA
:1039A000A3F1B1FA81F193FAA3F34FF00F0EB3FA3A
:1039B00083F389000EFA01F19B0022EA010200FA6A
:1039C00003F3134363623B46226895FAA5F0B0FA0D
:1039D00080F095FAA5F14FF0030EB1FA81F14000A5
:1039E0000EFA00F0490022EA00028B40013F134327
:1039F000012F236005D8636832074CBF2B43AB43CC
:103A00006360C6F3011229462046BDE8F041FFF786
:103A100086BF226A95FAA5F3B3FA83F395FAA5F166
:103A20004FF00F0EB1FA81F19B000EFA03F38900FB
:103A300022EA030200FA01F313432362C3E7672279
:103A40000249054803F02CF80023BDE7AC9A0408AE
:103A5000679704086C9A0408A3A10408431C70B576
:103A600006460D4604D188221B491C4803F018F86D
:103A700006F00F021A4BC6F3031053F82240FFF76B
:103A800069F804FB04F2016802EB42030B40B3FB4C
:103A9000F2F3013B012B05D8EB1E022B436809D83A
:103AA00023434360032D08D101222146BDE8704025
:103AB000FFF735BF23EA04034360012DF4D0052D41
:103AC00001D0022D01D10222EFE721460022BDE8FC
:103AD0007040FFF70EBF00BFAC9A04086797040858
:103AE0006C9A040870B5A6B03422002102A82FF009
:103AF0004FF85C2200210FA82FF04AF82A4B1D68CE
:103B0000002D4FD1294C019501261E60236C43F0F6
:103B100080532364236C03F080530193019B00F0D6
:103B20005DFC042302A802930895049600F0C0FFF0
:103B300010B11F4803F032FDA36823F4F813A3600B
:103B4000A36823F4F813A360236F43F480732367FF
:103B500020230F930FA84FF480731F9300F058FD9C
:103B600010B1144803F01AFD134B144801221A60D7
:103B7000134B036003220023826041F6FF724377F8
:103B80004360C26003614361836101F05EF910B17B
:103B90000C4803F003FD094801F089FA10B10A4806
:103BA00003F0FCFC26B070BDA82E002000380240B7
:103BB000049B0408249B04083C0E4742AC2E0020C2
:103BC000002800404D9B0408679B0408F0B51F4B7C
:103BD0001F491C681F4A5D688BB00C4015401E468B
:103BE0000F461868084084422BD15868104085421F
:103BF00027D105F03F0001F051FA0490C5F30420ED
:103C000001F04CFA01380590280C01F047FA4430D5
:103C10000690C4F3054001F041FA0390C4F3062076
:103C200001F03CFA029004F07F0001F037FA012223
:103C30000190694601A802F051FF00B100980BB055
:103C4000F0BD346875683C401540CAE70028004064
:103C50007F7F7F003FFFFF00024BD868C0F300105A
:103C6000704700BF00280040214B224A2DE9F04157
:103C70001D691C689E6AC5F30E0514401846174658
:103C8000196811408C422ED1996A8E422BD1C4F30F
:103C9000054001F003FA0746C4F3062001F0FEF9DF
:103CA000804604F07F0001F0F9F9134A13493C23E0
:103CB00013FB08004FF4616303FB070013681468EB
:103CC00098420B683CBF03F5A83303F5C0731B1B78
:103CD00003440B6010600868013DC00305EB9000D1
:103CE000801BBDE8F0810468866A3C40C8E700BFDD
:103CF000002800407F7F7F00A42E0020A02E0020FF
:103D000030B591B000211422044602A801912EF092
:103D10003FFF03F0DBF82A4B2A4A1A6007A9012269
:103D2000204602F02BFF002848D00D9B03B9072343
:103D30008DF804300B9B01338DF805300A9B8DF80C
:103D400006300C9B443B8DF80730099B8DF80830FA
:103D5000089B8DF809300024079B8DF80A308DF8F8
:103D60000B4005940694FFF77FFF9DF809109DF81E
:103D70000A2013483C2313FB01229DF808304FF41E
:103D8000616101FB0323104A13600E4B224601A917
:103D90009D6A01F0B3F810B10C4803F0FFFB00225C
:103DA00002A9074801F00AF910B1094803F0F6FB2F
:103DB000044A936A9D42FCD103F09EF811B030BDD5
:103DC000AC2E002000280040A42E0020809B040878
:103DD000979B04080FB407B5064B07491B6805AA53
:103DE000D868019235F0BEFA03B05DF804EB04B078
:103DF000704700BF08070020AE9B04084368094ACB
:103E00009B0182B0D3581A68120706D5002201928E
:103E10001A6801925A680192019A1868C0F340101A
:103E200002B07047444700204368034A9B01D358BF
:103E30001868C0F3C0107047444700204268144916
:103E4000920110B404685450531882685A60C268D2
:103E50009A600269DA6042691A61026A9A61002214
:103E6000DA84DA619A84DA859A85B0F91A20013207
:103E700006D108225A6118465DF8044B01F0B1BE24
:103E8000B0F9182001320CBF04220C22F2E700BF67
:103E90004447002010B581600C46FFF7CFFF28B1E2
:103EA00021460348BDE81040FFF794BF10BD00BF96
:103EB000AE9B0408124B984217D0A3F54C4398428E
:103EC00015D003F58063984213D003F580639842C0
:103ED00011D003F5806398420FD003F54443984214
:103EE0000CBF05204FF0FF307047002070470120C5
:103EF000704702207047032070470420704700BFBE
:103F000000100140F0B50E4687B004465B493046CC
:103F1000154602F037FC5A490746284602F032FCA3
:103F20000146384602F008FC2060013004D13D22F1
:103F30005449554802F0B4FD022E0CD0032D0AD08E
:103F40004E49022002F01EFC874202D14F4803F086
:103F500025FB002700E001274D4B206898424FF0D9
:103F600000031AD100934B4B5A6C42F010025A6472
:103F70005B6C03F010030093009B474B984229D1E0
:103F800000230593434B5A6C42F020025A645B6C49
:103F900003F020030593059B1CE0404A90420BD19F
:103FA00001933C4B1A6C42F400321A641B6C03F40C
:103FB00000330193019BE0E7394A904240D10293DC
:103FC000344B1A6C42F480221A641B6C03F4802375
:103FD0000293029BFFF76EFF0028606004DAA422C0
:103FE0002849304802F05CFD2449304602F080FB4D
:103FF0002349284602F07CFB721C03D00121304685
:10400000FFF72CFD6B1C03D001212846FFF726FD8E
:104010004FF41653A3600023E360236163612362BE
:10402000268365832046FFF709FF3FB11E4B1F48DB
:1040300001221A6021464C222EF094FC07B0F0BDFC
:104040001B4A90420BD10393124B1A6C42F400228C
:104050001A641B6C03F400230393039BBAE7154A0D
:1040600090428AD104930B4B1A6C42F480121A646A
:104070001B6C03F480130493049BABE77496040851
:10408000FC950408D89B0408349C0408509C040840
:10409000001001400038024000140140004400407C
:1040A00000480040859C0408CC2E0020F8460020E3
:1040B000004C004000500040002808DB420901236A
:1040C00000F01F0003FA00F0014B43F82200704794
:1040D00000E100E000280DDB4309012200F01F0091
:1040E00002FA00F02033044A42F82300BFF34F8F56
:1040F000BFF36F8F704700BF00E100E0F7B5FFF737
:10410000D9FE071E26DB144E56F8270010B3134CB9
:10411000BD0163591A68120606D5DB68190603D576
:104120000F4B01211B68984763591A68920608D5FE
:10413000DB68980605D50A4B56F827001B68002156
:10414000984763591A68110704D55A69D20744BFC2
:104150005B68019303B0F0BDD42E002044470020DB
:10416000D02E00200148FFF7C9BF00BF0014014056
:104170000148FFF7C3BF00BF005000400148FFF7F0
:10418000BDBF00BF004C00400148FFF7B7BF00BFF4
:10419000004800400148FFF7B1BF00BF00440040A5
:1041A0000148FFF7ABBF00BF00100140034B19608F
:1041B0004168034B43F82120704700BFD02E0020F8
:1041C000D42E002030B490E818002C48834233D01D
:1041D0000AD8A0F50060834228D000F580608342B1
:1041E00027D0002318460FE0254883420AD000F567
:1041F0008060834223D0A0F544408342F1D1214B1B
:10420000352001E0204B2520204DA401FAB1C9B989
:104210002959CA6842F02002CA601D4A00F1100103
:10422000926830BC42F82130FFF746BF194B262078
:10423000EAE7194B2720E7E7184B3420E4E7184B4F
:104240004720E1E72959CA6842F08002E4E72B5988
:10425000DA6849B922F02002DA60DB6813F0800FD7
:1042600009D130BCFFF736BF22F08002DA60DB688C
:1042700013F0200FF4E730BC704700BF004C004043
:104280000010014071410008A1410008444700208E
:1042900000ED00E095410008894100087D410008DB
:1042A0006541000838B5446805462846FFF7A6FD75
:1042B0000028FAD0A401034B1B595868C0F308002A
:1042C00038BD00BF4447002070B5456806460C461F
:1042D0003046FFF7A9FD0028FAD0AD01024B5B592B
:1042E000C4F308045C6070BD4447002008B50E4A62
:1042F000C36D934214D008D8A2F5806293420FD0C8
:104300000A4803F04BF9002008BD094A934203D044
:1043100002F580629342F3D1BDE8084000F04AB94B
:10432000BDE8084000F036B9003C0040979C040806
:1043300000300140DFF830D0002103E00B4B5B5828
:10434000435004310A480B4B42189A42F6D30A4AAA
:1043500002E0002342F8043B084B9A42F9D301F0F3
:104360001FFEFBF753FF704700000220742B050867
:10437000C801002060110020601100200C490020BD
:10438000FEE7704708B50B4B1A6842F400721A60DA
:104390001A6842F480621A601A6842F480721A60E5
:1043A000032000F009F80F20FEF774FEFFF7E9FF85
:1043B000002008BD003C0240074AD36823F4E063B4
:1043C0001B041B0C43F0BF63000243F4003300F4F2
:1043D000E0600343D360704700ED00E0014B012231
:1043E0001A60704720000E4237B500230193184B26
:1043F000184C1A6C42F080521A641B6C03F0805304
:104400000193019B144B01221A60FEF749FE0546F9
:104410006368DA030BD5114B0E4C01221A60FEF7CC
:104420003FFE054663689B030AD5002006E0FEF7C1
:1044300037FE401BB0F57A7FEAD9032003B030BDC8
:10444000FEF72EFE401BB0F57A7FEBD9F5E700BFF3
:10445000003802400070004040000E4244000E420E
:104460002DE9F0410D46044610B90120BDE8F08168
:10447000444B1A6802F00F028A4228D321688F0742
:104480002DD4C80740D43F4B1A6802F00F02954262
:1044900066D3226851076CD4130707D53A4A2169BD
:1044A000936823F4604343EAC103936000F0B8FAD1
:1044B000354B364A9B68C3F30313D35CD840344B67
:1044C00018600F20FEF7E6FD0020BDE8F081CAB2BB
:1044D0001A701B6803F00F039942C6D1CEE72A4B2E
:1044E00011F0040F1EBF9A6842F4E0529A600E0762
:1044F00042BF9A6842F460429A609A68A06822F0CB
:10450000F00202439A60BCE762681F4B012A1DD18A
:104510001B6813F4003FA8D01B4EB36823F00303BD
:104520001343B360FEF7BCFD41F288380746B36819
:10453000626803F00C03B3EB820FA4D0FEF7B0FD6A
:10454000C01B4045F3D90320BDE8F081911E01292D
:104550001B6802D813F0007FDDE713F0020FDAE7E3
:10456000EAB21A701B6803F00F039D427FF47DAF1F
:104570008FE70549E0688B6823F4E05303438B60C1
:104580008AE700BF003C0240003802409D9D0408BD
:104590005C060020044B054A9B68C3F38223D35C6E
:1045A000034A1068D840704700380240AD9D0408A7
:1045B0005C060020044B054A9B68C3F34233D35C7E
:1045C000034A1068D840704700380240AD9D040887
:1045D0005C0600200F2303600B4B9A6802F0030275
:1045E00042609A6802F0F00282609A6802F4E05237
:1045F000C2609B68DB0803F4E0530361034B1B6854
:1046000003F00F030B60704700380240003C02408B
:1046100003682DE9F74313F0010604460BD0AA49BD
:10462000866BD1F88C2022F0C0623243B6FA86F64F
:10463000C1F88C2076099D070BD5A348E16BD0F813
:104640008C2022F0C0520A430029C0F88C2008BFF9
:10465000012613F0040512D09B49256BD1F88C205C
:10466000B5F5801F22F4401242EA050218BFB5FAE0
:1046700085F5C1F88C2012BF6D09002501261807A9
:104680000FD59148616BD0F88C2022F440020A4388
:10469000B1F5800FC0F88C2000F00981002908BF17
:1046A0000125990633D500230193874B874F1A6C58
:1046B00042F080521A641B6C03F080530193019BFB
:1046C0003B6843F480733B60FEF7EAFC80463B683E
:1046D000DA0540F1EE807C4F3B6F13F4407340F0FD
:1046E000FB80236C03F44072B2F5407F764A40F0C1
:1046F0001681916823F0704021F4F81120F4407085
:1047000001439160116FC3F30B030B4313672368DD
:10471000D90642BF6E4B94F858201A6023681A06D7
:1047200008D56949E06CD1F8942022F44002024394
:10473000C1F894205F0608D56349A06CD1F8942095
:1047400022F080620243C1F89420D8050CD55E485F
:10475000616DD0F8942022F000620A43B1F1006F3D
:10476000C0F8942008BF0125990508D55649606C0A
:10477000D1F8942022F080520243C1F894205A05C7
:1047800000F1D180012E40F0DC80524E4E4F0023CC
:104790003360FEF785FC80463B681B0100F12581F4
:1047A0002268D00701D5A36B1BB1910715D5E36B28
:1047B0009BB94549D1F88430D1F8840003F44033E3
:1047C00000F07060034360680343A06843EA80130D
:1047D000606943EA0073C1F88430530703D5236B43
:1047E000B3F5801F05D0170720D5636BB3F5800F95
:1047F0001CD13549D1F88430D1F8840003F440331A
:1048000000F0E040034360680343A06843EA80137C
:10481000206943EA0063C1F88430D1F88C00A36AB0
:1048200020F01F00013B0343C1F88C3050051BD51D
:10483000236DB3F1005F17D123486768D0F8841067
:10484000D0F8843003F0E0433B43A768C1F3014153
:10485000013143EA871343EA4163E16849080139BA
:1048600043EA0143C0F88430110511D52369A268D9
:104870001B0643EA821362681343626943EA0273C8
:10488000E2685208013A43EA02430F4AC2F8843010
:1048900001233360FEF704FC0B4E074633681A0110
:1048A00053D4FEF7FDFBC01B0228F7D908E0012610
:1048B000F7E6FEF7F5FBA0EB080002287FF607AF4E
:1048C000032003B0BDE8F0830038024000700040D0
:1048D000E011474268004742226C02F44072934262
:1048E0003FF4FFAE3B6F4B4A0121116023F440734C
:1048F000002111603B673B6FDB077FF5F2AEFEF7EF
:10490000CFFB41F2883980463B6F98073FF5E9AE0F
:10491000FEF7C6FBA0EB08004845F5D9D0E7916843
:1049200021F4F811EDE63C48216DD0F8942022F0F6
:1049300000520A43B1F1005FC0F894207FF422AF27
:1049400023E7B3F5006F3FF420AF012D4BD1334D7A
:10495000314E00232B60FEF7A3FB074633689B0014
:104960004BD421684E0701D5236B1BB108071AD51C
:10497000636BC3B9284AA069D2F8883003F4403386
:104980000343E06943EA8013606A43EA0063C2F8C4
:104990008830D2F88C30E06A23F4F853013843EAC7
:1049A0000023C2F88C30CA0514D5636DB3F1006FD3
:1049B00010D11949A269D1F8883003F0706313430C
:1049C000E26943EA8213226A5208013A43EA024347
:1049D000C1F8883001232B60FEF762FB0E4C0546C0
:1049E00023689B000FD500206BE7FEF759FBA0EB77
:1049F000080002287FF6D0AE62E7FEF751FBC01B2D
:104A00000228ABD95CE7FEF74BFB401B0228E7D935
:104A100056E700BF400E4742003802407000474250
:104A2000204908B58B6803F00C03082B07D00C2B2A
:104A300020D01D4A1D48042B18BF104608BD4A68E7
:104A40004B68496813F4800314BF18481648C1F333
:104A5000881118BF002302F03F02A1FB000141F0C2
:104A6000A9FD104B5B68C3F3014301335B00B0FB4E
:104A7000F3F008BD4A684B68496813F4800314BF1B
:104A80000A480948C1F3881118BF002302F03F0209
:104A9000A1FB000141F08EFD024B5B68C3F3027382
:104AA000E5E700BF003802400024F40000127A005D
:104AB00003682DE9F341DF07044610D423689E07FD
:104AC00067D423681A0700F1B28023685B0700F1FE
:104AD000D080A269002A40F0398100201EE0974B67
:104AE0009A6802F00C02042A10D09A6802F00C02B4
:104AF000082A02D15B685D0208D4904B9A6802F0E4
:104B00000C020C2A0DD15A6850020AD58B4B1B6837
:104B10009903D3D56368002BD0D1012002B0BDE842
:104B2000F0816268B2F5803F11D11A6842F4803298
:104B30001A60FEF7B5FA814D06462B689A03BDD47C
:104B4000FEF7AEFA801B6428F7D90320E6E77B4D19
:104B5000B2F5A02F2B6807D143F480232B602B687C
:104B600043F480332B60E4E723F480332B602B681D
:104B700023F480232B60002ADBD1FEF791FA06464E
:104B80002B689B039AD5FEF78BFA801B6428F7D914
:104B9000DBE76A4B9A6812F00C0F10D09A6802F0AB
:104BA0000C02082A02D15B685F0208D5634A936849
:104BB00003F00C030C2B11D153685E020ED45F4B33
:104BC0001A68950702D5E268012AA6D11A682169F8
:104BD00022F0F80242EAC1021A6072E7E268584B1A
:104BE000B2B101221A60FEF75BFA544D06462B68FB
:104BF000980707D52B68226923F0F80343EAC2031C
:104C00002B605EE7FEF74CFA801B0228EFD99CE789
:104C10001A60FEF745FA494D06462B6899077FF55D
:104C200050AFFEF73DFA801B0228F6D98DE7626986
:104C3000444B7AB101221A60FEF732FA3F4D064624
:104C40006B6F9F073FF541AFFEF72AFA801B0228E2
:104C5000F6D97AE71A60FEF723FA384D06466B6FED
:104C600098077FF532AFFEF71BFA801B0228F6D9B2
:104C70006BE7324B1A6C12F0805228D101921A6CF9
:104C800042F080521A641B6C03F080530193019B25
:104C900001262D4D2B68D9051BD5A368274D012B67
:104CA00027D12B6F43F001032B67FEF7F9F9234D52
:104CB000074641F288382B6F9B0739D5002E3FF409
:104CC00008AF1E4A136C23F08053136401E70026DB
:104CD000DFE72B6843F480732B60FEF7E1F90746AA
:104CE0002B68DA05D9D4FEF7DBF9C01B0228F7D907
:104CF0002BE7052B04D12B6F43F004032B67D0E780
:104D00002A6F22F001022A672A6F22F004022A6722
:104D1000002BCAD1FEF7C4F941F2883807462B6F41
:104D20009807CBD5FEF7BCF9C01B4045F7D90CE777
:104D3000FEF7B6F9C01B4045BDD906E70038024072
:104D400000004742800E474200700040234DAB6890
:104D500003F00C03082B3FF4E0AE214E0023022A9F
:104D600033602DD1FEF79CF907462B68990121D4B9
:104D7000226AE3691343626A43EA8213E26A43EAFE
:104D80000263226B43EA0273A26A144C5208013A8E
:104D900043EA02436B6001233360FEF781F9054665
:104DA00023689A013FF599AEFEF77AF9401B022875
:104DB000F6D9CAE6FEF774F9C01B0228D5D9C4E6B5
:104DC000FEF76EF904462B689B017FF586AEFEF771
:104DD00067F9001B0228F6D9B7E600BF0038024089
:104DE000600047427047026838B5D36823F0A003DB
:104DF000D3600446FEF754F905462368DB689B063A
:104E000001D5002038BDFEF74BF9401BB0F57A7F85
:104E1000F3D9032038BD38B50368DA685206044672
:104E200001D5002038BD4FF0FF32DA60FEF738F9C7
:104E300005462368DB685B06F3D4FEF731F9401BB7
:104E4000B0F57A7FF5D9032038BD38B50446B8B13E
:104E5000437F03F0FF0213B90277FFF7C3FF02237A
:104E600063772368CA225A6253225A622046FFF7A8
:104E7000D2FF2368054628B1FF225A6204236377D4
:104E800001252EE09A68206922F4E00222F0400217
:104E90009A60626899680243606902430A439A60B3
:104EA000E2681A611A69A16842EA01421A61DA6885
:104EB00022F08002DA609B689B0605D42046FFF74B
:104EC00092FF08B12368D7E72368A1691A6C22F41E
:104ED00080221A641A6C0A431A64FF225A62012360
:104EE0006377284638BD0023092803D840EA031019
:104EF000C0B270470A380133C0B2F5E7F8B5037F96
:104F0000012B05464FF0020630D001230377467788
:104F10004B78C8788E780C78002A48D1DA0603D509
:104F200023F010030A334B70FFF7DDFF0746487884
:104F3000FFF7D9FF02463046FFF7D5FF40EA44307D
:104F400040EA074040EA02242B68CA225A625322F0
:104F50005A622846FFF75FFF2B68064640B1FF22E2
:104F60005A6204236B7700232B7701263046F8BD65
:104F700024F07F4424F0C0045C60DA6822F08002F0
:104F8000DA609B689B060AD42846FFF72CFF30B1F5
:104F90002B68FF225A6204236B772E77E5E72B6894
:104FA000FF225A6201236B7700232B77DEE71B0277
:104FB00043EA0040304340EA4434C5E7F8B5037F94
:104FC000012B06460F464FF002052FD00123037731
:104FD0000368457708784D788C789B6842BB13F05E
:104FE000400308BFCB70FFF77EFF01462846FFF75E
:104FF0007AFF02462046FFF776FFFB7840EA03403F
:1050000040EA014040EA02243368CA225A6253222D
:105010005A623046FFF7FFFE33680546A8B1FF220B
:105020005A62042373770023337701252846F8BD9D
:1050300013F040034FEA052508BFCB7045EA004056
:105040002043CC7840EA0444DEE704F07F3424F0C7
:10505000FE441C609A68386922F480229A60FA68DB
:10506000996802430A439A60DA6822F08002DA60A3
:105070009B689B060AD43046FFF7B5FE30B1336813
:10508000FF225A62042373773577CEE73368FF2215
:105090005A620123737700233377C7E7030903EBD1
:1050A000830300F00F0000EB4300C0B27047037FA2
:1050B000012B4FF002030FD043770368CA225A62D4
:1050C00053225A629A6842F020029A60FF225A6282
:1050D00001234377002303771846704703685A6813
:1050E00022F0E0025A604268B2F5827F0AD18268FB
:1050F000B2F5004F02D0B2F5806F03D11A6822F0EA
:1051000040021A60826AB2F5005F09D11A6822F47F
:1051100000521204120C1A601A6842F400521A600B
:10512000012380F85130002380F85030032070476D
:1051300070B505460C46164629688B689B0701D555
:10514000002070BD621CF8D024B92846BDE870402C
:10515000FFF7C4BFFDF7A4FF801B8442ECD8F4E73F
:105160002DE9F041DDF8188005460F4616461C462D
:105170002B6898683840B04202D10020BDE8F08129
:10518000621CF6D024B92846BDE8F041FFF7A6BF5F
:10519000FDF786FFA0EB08008442E9D8F3E713B5DA
:1051A0000B460092802100220446FFF7D9FF20B170
:1051B000636D43F020036365032002B010BD7047A8
:1051C00038B5044600283BD090F8513003F0FF0278
:1051D0001BB980F85020FFF7F2FF2168A568A06A8C
:1051E000A269022384F851300B6823F040030B605E
:1051F00063682B43E5682B4325692B4365692B4383
:10520000E5692B43256A2B43034302F400752B43C6
:105210000B60120C636AB0F5005F02F0040242EA10
:10522000030208BFE36A4A6008BF0B61CB6923F43D
:105230000063CB6100200123606584F8513038BDE4
:10524000012038BD2DE9F3411E4690F85030012B66
:1052500004460D46904600F0BA80012380F8503095
:10526000FDF71EFF074694F85100C0B2012840F038
:10527000AC80002D5FD0B8F1000F5CD0032384F820
:10528000513000236365A363A4F83680A387E387C6
:1052900063642364A36822682563B3F5004F08BFE5
:1052A0001368A4F8348004BF43F480431360A36AF6
:1052B000B3F5005F09D1136823F400531B041B0CE2
:1052C0001360136843F40053136013685B065EBFFA
:1052D000136843F040031360E368B3F5006F63683D
:1052E0003AD11BB1E38E9BB2012B06D135F8023BBC
:1052F000D360E38E013B9BB2E386E38E9BB283B91E
:105300003A4631462046FFF713FF98B93A463146F0
:105310002046FFF744FF002840D02023636501208A
:1053200009E023689A68900703D535F8022BDA6004
:10533000DFE74EB90320012384F85130002384F8BD
:10534000503002B0BDE8F081711CD6D0FDF7A8FE48
:10535000C01B8642D1D8EDE71BB1E38E9BB2012B77
:1053600006D115F8013B1373E38E013B9BB2E38634
:10537000E38E9BB2002BC3D023689A68920703D5B3
:1053800015F8012B1A73EFE7002ED3D0731CEFD062
:10539000FDF786FEC01B8642EAD8CBE7A36833B987
:1053A00001932368DA6801929B680193019BA36AC9
:1053B000B3F5005F01BF2268136843F480531360A4
:1053C000606D003018BF0120B5E70220B3E702206E
:1053D000B7E72DE9F04385B099460023ADF80A30D0
:1053E00090F850300C9E012B04460D46904600F07C
:1053F0004581012380F85030FDF752FE94F851307A
:105400006168DBB2012B07460AD0B1F5827F40F01C
:105410003381A268002A40F02F81042B40F02C81B8
:10542000002D00F01B81B8F1000F00F01781B9F1D9
:10543000000F00F0138194F85130C4F83880012B2C
:1054400004BF052384F8513000236365236463643B
:10545000A36AA4F83E90B3F5005FA4F83C902563DE
:10546000A4F83690A4F83490236809D11A6822F47D
:1054700000521204120C1A601A6842F400521A60A8
:105480001A6850065EBF1A6842F040021A60E2686D
:10549000B2F5006F6BD119B1E28E92B2012A06D13A
:1054A00035F8022BDA60E38E013B9BB2E3864FF0C6
:1054B0000109E38E9BB2B3B9E38F9BB29BB9A36A98
:1054C000B3F5005F40F0AE800122009733461146ED
:1054D0002046FFF745FE002800F09D80636D43F0F5
:1054E0000203636535E0B9F1000F1BD0E38E9BB278
:1054F000C3B122689368990714D535F8023BD3608D
:10550000E38E013B9BB2E386E38E1FFA83F9B9F188
:10551000000F29D1A16AB1F5005F03D1116841F4F0
:1055200080511160E38F9BB263B123689A68D20700
:1055300008D5DB6828F8023BE38F013B9BB2E38789
:105540004FF00109701CB4D0FDF7AAFDC01B8642C4
:10555000AFD80325012384F85130002384F850305C
:10556000284605B0BDE8F0834FF00009DAE719B12D
:10557000E28E92B2012A06D115F8012B1A73E38E3E
:10558000013B9BB2E3864FF00109E38E9BB21BB94E
:10559000E38F9BB2002B92D0B9F1000F21D0E38EA4
:1055A0009BB2F3B123689A6891071AD529781973C9
:1055B000E38E013B9BB2E386E38E1FFA83F96A1CFC
:1055C000B9F1000F0AD1A16AB1F5005F04D12068DA
:1055D000016841F480510160154602E015464FF024
:1055E0000009E38F9BB273B123689A68D2070AD58A
:1055F000DB6888F80030E38F013B9BB2E38708F15A
:1056000001084FF00109731CBFD0FDF749FDC01B15
:105610008642BAD89DE72368DB689BB2ADF80A30B2
:10562000BDF80A302268956815F0100507D0636D43
:1056300043F0020363654FF6EF73936001253A462A
:1056400031462046FFF774FD002882D13A463146A4
:105650002046FFF7A4FD18B120236365012579E7F3
:10566000A368002B7FF476AF03932368DA68039274
:105670009B680393039B6DE702256BE702256FE7A9
:105680002DE9FF411D460023ADF80E304368B3F508
:10569000827F04460E4690460CD1836853B904239A
:1056A00080F85130134600950A46FFF792FE04B089
:1056B000BDE8F08194F85030012B00F0CD8001233B
:1056C00084F85030FDF7ECFC074694F85100C0B266
:1056D000012840F0BF80002E7DD0B8F1000F7AD0B5
:1056E000042384F85130002363652363A4F83E80CB
:1056F000A386E38623646364A36AA663B3F5005FAD
:10570000A4F83C8023680DD11A6822F400521204D8
:10571000120C1A601A6842F400521A60E28F013AC1
:1057200092B2E287A268B2F5004F02BF1A6822F473
:1057300080421A601A6851065EBF1A6842F0400241
:105740001A60E368CBB1E38F9BB2D3B123689A6848
:10575000D0074FD5DB6826F8023BE38F013B9BB2B5
:10576000E387F0E723689A68D20732D51B7B06F8F7
:10577000013BE38F013B9BB2E387E38F9BB2002B9E
:10578000F0D1A36AB3F5005F45D12268136843F4F2
:1057900080531360012200972B4611462046FFF7E5
:1057A000DFFCB8B9E368B3F5006F23684FF001027E
:1057B0000BBFDB681B7B3380337000972B46114691
:1057C0002046FFF7CDFCF8B1636D43F0020363653B
:1057D00000E03DB90320012384F85130002384F810
:1057E000503064E76B1CC8D0FDF75AFCC01B8542E3
:1057F000C3D8EFE7002DEDD0691CA4D0FDF750FC15
:10580000C01B85429FD8E5E72368DB689BB2ADF8F3
:105810000E30BDF80E306368B3F5827F23680AD17D
:10582000A268B2F5004F02D0B2F5806F03D11A68BA
:1058300022F040021A609A68D20606D5626D42F0E4
:10584000020262654FF6EF729A60606D003018BF19
:105850000120C0E70220BEE7022028E770470000D1
:105860002E4A0368904212D0B0F1804F0FD0A2F5BB
:105870007C4290420BD002F58062904207D002F544
:105880008062904203D002F5784290421DD14A686E
:1058900023F070031343214A904204D1CA6823F4D1
:1058A0004073134328E0B0F1804FF7D01C4A904278
:1058B000F4D002F580629042F0D002F5806290420E
:1058C000ECD002F578429042E8D0164A9042E5D0FA
:1058D00002F580629042E1D002F580629042DDD014
:1058E000A2F598329042D9D002F580629042D5D08C
:1058F00002F580629042D1D003608B68C3620B686E
:105900008362064B984206D003F58063984202D02A
:105910000123436170470B690363F9E7000001400D
:10592000000400400040014010B50446A0B190F8CA
:10593000393003F0FF021BB980F83820FFF78EFFE3
:10594000022384F839302068211DFFF789FF0123E5
:1059500084F83930002010BD012010BD036A10B555
:1059600001248C4023EA04030362036A8A401A4339
:10597000026210BD10B5044601220068FFF7EEFF79
:105980002368084A934203D002F58062934203D110
:105990005A6C42F400425A641A6842F001021A60DA
:1059A000002010BD00000140FFF7E4BF2DE9F047E3
:1059B0000668C2683369C16923F4405313433361F5
:1059C000044683680069F2680343606922F4164262
:1059D000034322F00C020B431343F3607369A26983
:1059E00023F440731343B1F5004F73617A4B7CD1BC
:1059F0009E4203D003F580639E4244D1FEF7DAFD58
:105A0000192505FB00F360684FF064094000B3FB03
:105A1000F0F3B3FBF9F34FEA0318FEF7CBFD63682D
:105A200068435B00B0FBF3F7FEF7C4FD63686843AF
:105A30005B00B0FBF3F3B3FBF9F309FB1373DB007B
:105A40003233B3FBF9F35B0003F4F877FEF7B2FDF2
:105A5000626868435200B0FBF2FAFEF7ABFD636880
:105A600068435B00B0FBF3F3B3FBF9F309FB13A34B
:105A7000DB003233B3FBF9F303F0070343443B4449
:105A8000B360BDE8F087FEF785FD192505FB00F33F
:105A900060684FF064094000B3FBF0F3B3FBF9F327
:105AA0004FEA0318FEF776FD636868435B00B0FBBE
:105AB000F3F7FEF76FFD636868435B00B0FBF3F339
:105AC000B3FBF9F309FB1373DB003233B3FBF9F3D8
:105AD0005B0003F4F877FEF75DFD626868435200EF
